S01600004D43552028204D415354455220292E73726563AC
S11300000C942A000C943F000C943F000C943F0085
S11300100C943F000C943F000C943F000C943F0060
S11300200C943F000C943F000C943F000C943F0050
S11300300C943F000C943F000C943F000C943F0040
S11300400C943F000C943F000C943F000C943F0030
S11300500C943F0011241FBECFE5D8E0DEBFCDBF16
S113006011E0A0E6B0E0EEEEF3E002C005900D92E0
S1130070AE32B107D9F70E9444010C94F5010C94F7
S11300800000982F9770869586958695813021F18A
S113009030F08230F1F1833009F458C008956130B2
S11300A069F44BB321E030E0B90102C0660F771F59
S11300B09A95E2F7CB01842B8BBB08954BB321E0D7
S11300C030E0B90102C0660F771F9A95E2F7CB01C1
S11300D0809584238BBB0895613069F448B321E093
S11300E030E0B90102C0660F771F9A95E2F7CB01A1
S11300F0842B88BB089548B321E030E0B90102C0E5
S1130100660F771F9A95E2F7CB018095842388BB0D
S11301100895613069F445B321E030E0B90102C0CB
S1130120660F771F9A95E2F7CB01842B85BB089560
S113013045B321E030E0B90102C0660F771F9A95FC
S1130140E2F7CB018095842385BB0895613069F47F
S113015042B321E030E0B90102C0660F771F9A95DF
S1130160E2F7CB01842B82BB089542B321E030E057
S1130170B90102C0660F771F9A95E2F7CB0180950B
S1130180842382BB0895E0E6F0E080E041E050E0A3
S1130190282F2770982F969596959695913009F16A
S11301A030F09230C1F1933009F44FC067C09081B0
S11301B0913059F49AB3BA0102C0660F771F2A9599
S11301C0E2F79B01292B2ABB59C03AB3BA0102C0FA
S11301D0660F771F2A95E2F7962F909593239ABB83
S11301E04DC09081913059F497B3BA0102C0660FA3
S11301F0771F2A95E2F79B01292B27BB3FC037B312
S1130200BA0102C0660F771F2A95E2F7962F9095E0
S1130210932397BB33C09081913059F494B3BA01BE
S113022002C0660F771F2A95E2F79B01292B24BB96
S113023025C034B3BA0102C0660F771F2A95E2F7CE
S1130240962F9095932394BB19C09081913059F4C3
S113025091B3BA0102C0660F771F2A95E2F79B019A
S1130260292B21BB0BC031B3BA0102C0660F771F23
S11302702A95E2F7962F9095932391BB8F5F329640
S1130280803209F085CF08950E94C3008DE40E9456
S11302907A0160E08CE00E94410060E875E280E051
S11302A090E00E948E0180EA90E00E94C4018FEAEF
S11302B090E00E94C40186EC90E00E94C4018AEDA3
S11302C090E00E94C40181EF90E00E94C40182E0AA
S11302D091E00E94C40184E191E00E94C4010E9463
S11302E0BC01EFE4F3EC3197F1F700C000000E9489
S11302F08901F5CF8D3419F0833549F008958DB116
S113030080658DB961E08CE00E94410008956E9A89
S113031008958FB9779BFECF8FB108952AB12861D4
S11303202AB920B5266820BDDC01CB01880F991FAE
S1130330AA1FBB1F880F991FAA1FBB1F9C01AD01D9
S1130340220F331F441F551F220F331F441F551FF5
S113035060E074E284EF90E00E94D3018FEF820F9B
S113036089B9DA01C9010197A109B109892F9A2F25
S1130370AB2FBB2780BD08955F9BFECF8CB1089542
S11303808CB95D9BFECF0895CF93DF93EC018881F8
S1130390882331F021960E94C00189918111FBCFFD
S11303A0DF91CF910895A1E21A2EAA1BBB1BFD0178
S11303B00DC0AA1FBB1FEE1FFF1FA217B307E40740
S11303C0F50720F0A21BB30BE40BF50B661F771F98
S11303D0881F991F1A9469F7609570958095909578
S11103E09B01AC01BD01CF010895F894FFCF3D
S11303EE01010101010101010101010101010101EB
S11303FE01010101010101010101010100000101DD
S113040E01010101010101010101010101010101CA
S113041E01010101010101010101010101010101BA
S113042E20202020434F4D4D414E4453200A00209E
S113043E66203D3D3E204D6F746F7220466F72777D
S113044E617264200A002073203D3D3E204D6F747E
S113045E6F722053746F70200A002072203D3D3E4F
S113046E204D6F746F722052657665727365200A23
S113047E00206C203D3D3E204C616D70204F6E205F
S113048E0A002064203D3D3E204C616D70204F6675
S113049E66200A002074203D3D3E20526F6F6D2071
S11104AE54656D70726174757265200A0000E9
S9030000FC
