S01500004D4355202820534C41564520292E73726563FE
S11300000C942A000C943F000C943F000C943F0085
S11300100C943F000C943F000C943F000C943F0060
S11300200C943F000C943F000C943F000C943F0050
S11300300C943F000C943F000C943F000C943F0040
S11300400C943F000C943F000C943F000C943F0030
S11300500C943F0011241FBECFE5D8E0DEBFCDBF16
S113006010E0A0E6B0E0E8E0F7E002C005900D92F1
S1130070AE3EB107D9F70E9447020C9482030C9458
S113008000003E9A3F9A309A319A329A379A0895EC
S113009097B1907E8F71892B87B9369A349BFECFA6
S11300A0349A84B125B190E0922B0895982F9770DB
S11300B0869586958695813021F130F08230F1F174
S11300C0833009F458C00895613069F44BB321E0DA
S11300D030E0B90102C0660F771F9A95E2F7CB01B1
S11300E0842B8BBB08954BB321E030E0B90102C0EF
S11300F0660F771F9A95E2F7CB01809584238BBB1B
S11301000895613069F448B321E030E0B90102C0D8
S1130110660F771F9A95E2F7CB01842B88BB08956D
S113012048B321E030E0B90102C0660F771F9A9509
S1130130E2F7CB018095842388BB0895613069F48C
S113014045B321E030E0B90102C0660F771F9A95EC
S1130150E2F7CB01842B85BB089545B321E030E061
S1130160B90102C0660F771F9A95E2F7CB0180951B
S1130170842385BB0895613069F442B321E030E003
S1130180B90102C0660F771F9A95E2F7CB01842B61
S113019082BB089542B321E030E0B90102C0660F8A
S11301A0771F9A95E2F7CB018095842382BB08954B
S11301B0E0E6F0E080E041E050E0282F2770982F3F
S11301C0969596959695913009F130F09230C1F15B
S11301D0933009F44FC067C09081913059F49AB3B9
S11301E0BA0102C0660F771F2A95E2F79B01292BFB
S11301F02ABB59C03AB3BA0102C0660F771F2A95C9
S1130200E2F7962F909593239ABB4DC0908191303D
S113021059F497B3BA0102C0660F771F2A95E2F723
S11302209B01292B27BB3FC037B3BA0102C0660F1D
S1130230771F2A95E2F7962F9095932397BB33C0A7
S11302409081913059F494B3BA0102C0660F771FBC
S11302502A95E2F79B01292B24BB25C034B3BA01AC
S113026002C0660F771F2A95E2F7962F9095932385
S113027094BB19C09081913059F491B3BA0102C072
S1130280660F771F2A95E2F79B01292B21BB0BC030
S113029031B3BA0102C0660F771F2A95E2F7962F91
S11302A09095932391BB8F5F3296803209F085CF6E
S11302B00895CF93C82F8BB38F709C2F907F892B79
S11302C08BBB60E089E00E94560061E08BE00E94F5
S11302D056008FE891E00197F1F700C0000060E05C
S11302E08BE00E9456008FE19EE40197F1F700C075
S11302F000008BB3282F2F7030E1C39FC00111245D
S1130300822B8BBB60E089E00E94560061E08BE0A9
S11303100E9456008FE891E00197F1F700C00000B9
S113032060E08BE00E9456008FE39FE10197F1F7B4
S113033000C00000CF91089560E08AE00E9456005A
S11303402FEF89EF90E0215080409040E1F700C00A
S1130350000083E30E9459018FE193E00197F1F7D4
S113036000C0000082E30E94590188E20E94590102
S113037087E00E94590186E00E94590188E10E94A9
S113038059018CE00E94590181E00E9459018FE3D8
S11303909FE10197F1F700C000000895CF93C82FA3
S11303A08BB38F709C2F907F892B8BBB61E089E08E
S11303B00E94560061E08BE00E9456008FE891E0B5
S11303C00197F1F700C0000060E08BE00E94560046
S11303D08FE19EE40197F1F700C000008BB3282F52
S11303E02F7030E1C302C0011124822B8BBB61E06A
S11303F089E00E94560061E08BE00E9456008FE87D
S113040091E00197F1F700C0000060E08BE00E94EA
S113041056008FE39FE10197F1F700C00000CF91F0
S113042008950F931F93CF93FC018081882359F083
S11304308F01C0E00E94CE01CF5FF801EC0FF11DE7
S113044080818111F7CFCF911F910F91089581E0A1
S11304500E9459010895CF93DF93EC01613019F0A4
S1130460623051F011C0842F8F7080680E9459014E
S1130470CE010E94110208C0842F8F70806C0E94EC
S11304805901CE010E941102DF91CF910895CF93BB
S1130490DF93CDB7DEB7E2970FB6F894DEBF0FBE99
S11304A0CDBF0E94D80083E50E943A030E949C01BC
S11304B00E9441000E944903182F863669F40E9465
S11304C0270242E050E061E070E080EA90E00E94A0
S11304D02B020E94EF021EC0823769F40E94270299
S11304E042E050E061E070E08EEA90E00E942B026E
S11304F00E94080320C0833769F40E94270242E067
S113050050E061E070E08CEB90E00E942B020E94CE
S1130510210322C01C3679F40E94270242E050E0F5
S113052061E070E087EC90E00E942B0261E083E1DF
S11305300E945600BFCF143679F40E94270242E08D
S113054050E061E070E080ED90E00E942B0260E0FA
S113055083E10E945600AECF143709F0ABCF0E945E
S1130560270283E00E9448008C0116950795169592
S113057007954AE0BE016F5F7F4FC8010E944D039B
S113058041E050E061E070E08AED90E00E942B02CF
S1130590CE0101960E9411020D33110568F061E04D
S11305A085E10E94560045E050E062E070E087EE8D
S11305B090E00E942B0207C00C33110520F460E088
S11305C085E10E9456002FE784E89EE12150804097
S11305D09040E1F700C000000E942702C0CF61E014
S11305E080E00E94560060E081E00E94560061E0D5
S11305F082E00E94560061E08DE10E94560060E0B6
S11306008EE10E94560060E08FE10E94560008953A
S113061060E080E00E94560061E081E00E945600A4
S113062061E082E00E94560060E08DE10E94560085
S113063061E08EE10E94560060E08FE10E94560066
S1130640089560E080E00E94560060E081E00E942E
S1130650560060E082E00E94560060E08DE10E9456
S1130660560060E08EE10E94560061E08FE10E9436
S1130670560008958D3419F0833549F008958DB1ED
S113068080658DB961E08CE00E94560008956E9AF1
S11306900895779BFECF8FB10895BB274A3031F47C
S11306A0992322F4BDE2909581959F4F0C945903B0
S11306B0BB27FB015527AA27880F991FAA1FA41738
S11306C010F0A41B83955051B9F7A05DAA3308F02C
S11306D0A95DA193009779F7B111B1931192CB0160
S11306E00C947203DC01FC01672F71917723E1F70D
S11306F0329704C07C916D9370836291AE17BF07EB
S10B0700C8F30895F894FFCF3B
S113070801010101010100000101010101010101CF
S113071801010101010101010000000001010000C3
S113072801010101010101010101010101010101AD
S1130738010101010101010101010101010101019D
S11307484D6F746F7220466F7277617264004D6FDB
S1130758746F722052657665727365004D6F746F9D
S1130768722053746F70004C69676874206F6E0050
S11307784C69676874206F66660054656D707261B1
S111078874757265203D0044616E67657200F1
S9030000FC
